{
  "_format": "hh-sol-artifact-1",
  "contractName": "DAOTask",
  "sourceName": "contracts/task3/DAOTaskMain.sol",
  "abi": [
    {
      "inputs": [
        {
          "internalType": "contract POAP",
          "name": "_poapForPublisher",
          "type": "address"
        },
        {
          "internalType": "contract POAP",
          "name": "_poapForEmployer",
          "type": "address"
        },
        {
          "internalType": "contract POAP",
          "name": "_poapForIntercessor",
          "type": "address"
        }
      ],
      "stateMutability": "nonpayable",
      "type": "constructor"
    },
    {
      "anonymous": false,
      "inputs": [
        {
          "indexed": true,
          "internalType": "address",
          "name": "owner",
          "type": "address"
        },
        {
          "indexed": true,
          "internalType": "address",
          "name": "approved",
          "type": "address"
        },
        {
          "indexed": true,
          "internalType": "uint256",
          "name": "tokenId",
          "type": "uint256"
        }
      ],
      "name": "Approval",
      "type": "event"
    },
    {
      "anonymous": false,
      "inputs": [
        {
          "indexed": true,
          "internalType": "address",
          "name": "owner",
          "type": "address"
        },
        {
          "indexed": true,
          "internalType": "address",
          "name": "operator",
          "type": "address"
        },
        {
          "indexed": false,
          "internalType": "bool",
          "name": "approved",
          "type": "bool"
        }
      ],
      "name": "ApprovalForAll",
      "type": "event"
    },
    {
      "anonymous": false,
      "inputs": [
        {
          "indexed": true,
          "internalType": "address",
          "name": "previousOwner",
          "type": "address"
        },
        {
          "indexed": true,
          "internalType": "address",
          "name": "newOwner",
          "type": "address"
        }
      ],
      "name": "OwnershipTransferred",
      "type": "event"
    },
    {
      "anonymous": false,
      "inputs": [
        {
          "indexed": true,
          "internalType": "address",
          "name": "from",
          "type": "address"
        },
        {
          "indexed": true,
          "internalType": "address",
          "name": "to",
          "type": "address"
        },
        {
          "indexed": true,
          "internalType": "uint256",
          "name": "tokenId",
          "type": "uint256"
        }
      ],
      "name": "Transfer",
      "type": "event"
    },
    {
      "inputs": [],
      "name": "CANNOT_TRANSFER_TO_ZERO_ADDRESS",
      "outputs": [
        {
          "internalType": "string",
          "name": "",
          "type": "string"
        }
      ],
      "stateMutability": "view",
      "type": "function"
    },
    {
      "inputs": [],
      "name": "NOT_CURRENT_OWNER",
      "outputs": [
        {
          "internalType": "string",
          "name": "",
          "type": "string"
        }
      ],
      "stateMutability": "view",
      "type": "function"
    },
    {
      "inputs": [
        {
          "internalType": "address",
          "name": "to",
          "type": "address"
        },
        {
          "internalType": "uint256",
          "name": "tokenId",
          "type": "uint256"
        }
      ],
      "name": "approve",
      "outputs": [],
      "stateMutability": "nonpayable",
      "type": "function"
    },
    {
      "inputs": [
        {
          "internalType": "address",
          "name": "owner",
          "type": "address"
        }
      ],
      "name": "balanceOf",
      "outputs": [
        {
          "internalType": "uint256",
          "name": "",
          "type": "uint256"
        }
      ],
      "stateMutability": "view",
      "type": "function"
    },
    {
      "inputs": [
        {
          "components": [
            {
              "internalType": "address",
              "name": "publisher",
              "type": "address"
            },
            {
              "internalType": "address",
              "name": "employer",
              "type": "address"
            },
            {
              "internalType": "address",
              "name": "intercessor",
              "type": "address"
            },
            {
              "internalType": "string",
              "name": "metadataURI",
              "type": "string"
            },
            {
              "internalType": "string",
              "name": "title",
              "type": "string"
            },
            {
              "internalType": "address",
              "name": "token",
              "type": "address"
            },
            {
              "internalType": "uint256",
              "name": "createAt",
              "type": "uint256"
            },
            {
              "internalType": "uint256[]",
              "name": "orders",
              "type": "uint256[]"
            }
          ],
          "internalType": "struct DAOTaskOrder.OrderGroup",
          "name": "orderGroup",
          "type": "tuple"
        },
        {
          "internalType": "uint256[]",
          "name": "amounts",
          "type": "uint256[]"
        },
        {
          "internalType": "uint256[]",
          "name": "deadlineTimestamps",
          "type": "uint256[]"
        },
        {
          "internalType": "bytes",
          "name": "publisherSignature",
          "type": "bytes"
        },
        {
          "internalType": "bytes",
          "name": "employerSignature",
          "type": "bytes"
        },
        {
          "internalType": "bytes",
          "name": "intercessorSignature",
          "type": "bytes"
        }
      ],
      "name": "createOrderGroup",
      "outputs": [],
      "stateMutability": "nonpayable",
      "type": "function"
    },
    {
      "inputs": [
        {
          "internalType": "uint256",
          "name": "orderId",
          "type": "uint256"
        }
      ],
      "name": "finishOrderByEmployer",
      "outputs": [],
      "stateMutability": "nonpayable",
      "type": "function"
    },
    {
      "inputs": [
        {
          "internalType": "uint256",
          "name": "orderId",
          "type": "uint256"
        }
      ],
      "name": "finishOrderByPublisher",
      "outputs": [],
      "stateMutability": "nonpayable",
      "type": "function"
    },
    {
      "inputs": [
        {
          "internalType": "uint256",
          "name": "tokenId",
          "type": "uint256"
        }
      ],
      "name": "getApproved",
      "outputs": [
        {
          "internalType": "address",
          "name": "",
          "type": "address"
        }
      ],
      "stateMutability": "view",
      "type": "function"
    },
    {
      "inputs": [
        {
          "internalType": "address",
          "name": "employer",
          "type": "address"
        }
      ],
      "name": "getEmployersOrderGroups",
      "outputs": [
        {
          "internalType": "uint256[]",
          "name": "",
          "type": "uint256[]"
        }
      ],
      "stateMutability": "view",
      "type": "function"
    },
    {
      "inputs": [
        {
          "internalType": "address",
          "name": "intercessor",
          "type": "address"
        }
      ],
      "name": "getIntercessorsOrderGroups",
      "outputs": [
        {
          "internalType": "uint256[]",
          "name": "",
          "type": "uint256[]"
        }
      ],
      "stateMutability": "view",
      "type": "function"
    },
    {
      "inputs": [
        {
          "internalType": "uint256",
          "name": "orderId",
          "type": "uint256"
        }
      ],
      "name": "getOrder",
      "outputs": [
        {
          "components": [
            {
              "internalType": "uint256",
              "name": "amount",
              "type": "uint256"
            },
            {
              "internalType": "uint256",
              "name": "deadlineTimestamp",
              "type": "uint256"
            },
            {
              "internalType": "uint256",
              "name": "groupId",
              "type": "uint256"
            },
            {
              "internalType": "enum DAOTaskOrder.OrderStatus",
              "name": "status",
              "type": "uint8"
            }
          ],
          "internalType": "struct DAOTaskOrder.Order",
          "name": "",
          "type": "tuple"
        }
      ],
      "stateMutability": "view",
      "type": "function"
    },
    {
      "inputs": [
        {
          "internalType": "uint256",
          "name": "groupId",
          "type": "uint256"
        }
      ],
      "name": "getOrderGroup",
      "outputs": [
        {
          "components": [
            {
              "internalType": "address",
              "name": "publisher",
              "type": "address"
            },
            {
              "internalType": "address",
              "name": "employer",
              "type": "address"
            },
            {
              "internalType": "address",
              "name": "intercessor",
              "type": "address"
            },
            {
              "internalType": "string",
              "name": "metadataURI",
              "type": "string"
            },
            {
              "internalType": "string",
              "name": "title",
              "type": "string"
            },
            {
              "internalType": "address",
              "name": "token",
              "type": "address"
            },
            {
              "internalType": "uint256",
              "name": "createAt",
              "type": "uint256"
            },
            {
              "internalType": "uint256[]",
              "name": "orders",
              "type": "uint256[]"
            }
          ],
          "internalType": "struct DAOTaskOrder.OrderGroup",
          "name": "",
          "type": "tuple"
        }
      ],
      "stateMutability": "view",
      "type": "function"
    },
    {
      "inputs": [
        {
          "internalType": "address",
          "name": "publisher",
          "type": "address"
        }
      ],
      "name": "getPublishersOrderGroups",
      "outputs": [
        {
          "internalType": "uint256[]",
          "name": "",
          "type": "uint256[]"
        }
      ],
      "stateMutability": "view",
      "type": "function"
    },
    {
      "inputs": [
        {
          "internalType": "uint256",
          "name": "orderId",
          "type": "uint256"
        },
        {
          "internalType": "bool",
          "name": "isCancel",
          "type": "bool"
        }
      ],
      "name": "intercessorOrder",
      "outputs": [],
      "stateMutability": "nonpayable",
      "type": "function"
    },
    {
      "inputs": [
        {
          "internalType": "address",
          "name": "owner",
          "type": "address"
        },
        {
          "internalType": "address",
          "name": "operator",
          "type": "address"
        }
      ],
      "name": "isApprovedForAll",
      "outputs": [
        {
          "internalType": "bool",
          "name": "",
          "type": "bool"
        }
      ],
      "stateMutability": "view",
      "type": "function"
    },
    {
      "inputs": [
        {
          "internalType": "uint256",
          "name": "orderId",
          "type": "uint256"
        }
      ],
      "name": "markStatusToIntercess",
      "outputs": [],
      "stateMutability": "nonpayable",
      "type": "function"
    },
    {
      "inputs": [],
      "name": "name",
      "outputs": [
        {
          "internalType": "string",
          "name": "",
          "type": "string"
        }
      ],
      "stateMutability": "view",
      "type": "function"
    },
    {
      "inputs": [],
      "name": "orderCount",
      "outputs": [
        {
          "internalType": "uint256",
          "name": "",
          "type": "uint256"
        }
      ],
      "stateMutability": "view",
      "type": "function"
    },
    {
      "inputs": [],
      "name": "orderGroupCount",
      "outputs": [
        {
          "internalType": "uint256",
          "name": "",
          "type": "uint256"
        }
      ],
      "stateMutability": "view",
      "type": "function"
    },
    {
      "inputs": [
        {
          "internalType": "uint256",
          "name": "",
          "type": "uint256"
        }
      ],
      "name": "orderGroups",
      "outputs": [
        {
          "internalType": "address",
          "name": "publisher",
          "type": "address"
        },
        {
          "internalType": "address",
          "name": "employer",
          "type": "address"
        },
        {
          "internalType": "address",
          "name": "intercessor",
          "type": "address"
        },
        {
          "internalType": "string",
          "name": "metadataURI",
          "type": "string"
        },
        {
          "internalType": "string",
          "name": "title",
          "type": "string"
        },
        {
          "internalType": "address",
          "name": "token",
          "type": "address"
        },
        {
          "internalType": "uint256",
          "name": "createAt",
          "type": "uint256"
        }
      ],
      "stateMutability": "view",
      "type": "function"
    },
    {
      "inputs": [
        {
          "internalType": "uint256",
          "name": "",
          "type": "uint256"
        }
      ],
      "name": "orders",
      "outputs": [
        {
          "internalType": "uint256",
          "name": "amount",
          "type": "uint256"
        },
        {
          "internalType": "uint256",
          "name": "deadlineTimestamp",
          "type": "uint256"
        },
        {
          "internalType": "uint256",
          "name": "groupId",
          "type": "uint256"
        },
        {
          "internalType": "enum DAOTaskOrder.OrderStatus",
          "name": "status",
          "type": "uint8"
        }
      ],
      "stateMutability": "view",
      "type": "function"
    },
    {
      "inputs": [],
      "name": "owner",
      "outputs": [
        {
          "internalType": "address",
          "name": "",
          "type": "address"
        }
      ],
      "stateMutability": "view",
      "type": "function"
    },
    {
      "inputs": [
        {
          "internalType": "uint256",
          "name": "tokenId",
          "type": "uint256"
        }
      ],
      "name": "ownerOf",
      "outputs": [
        {
          "internalType": "address",
          "name": "",
          "type": "address"
        }
      ],
      "stateMutability": "view",
      "type": "function"
    },
    {
      "inputs": [
        {
          "internalType": "address",
          "name": "from",
          "type": "address"
        },
        {
          "internalType": "address",
          "name": "to",
          "type": "address"
        },
        {
          "internalType": "uint256",
          "name": "tokenId",
          "type": "uint256"
        }
      ],
      "name": "safeTransferFrom",
      "outputs": [],
      "stateMutability": "nonpayable",
      "type": "function"
    },
    {
      "inputs": [
        {
          "internalType": "address",
          "name": "from",
          "type": "address"
        },
        {
          "internalType": "address",
          "name": "to",
          "type": "address"
        },
        {
          "internalType": "uint256",
          "name": "tokenId",
          "type": "uint256"
        },
        {
          "internalType": "bytes",
          "name": "data",
          "type": "bytes"
        }
      ],
      "name": "safeTransferFrom",
      "outputs": [],
      "stateMutability": "nonpayable",
      "type": "function"
    },
    {
      "inputs": [
        {
          "internalType": "address",
          "name": "operator",
          "type": "address"
        },
        {
          "internalType": "bool",
          "name": "approved",
          "type": "bool"
        }
      ],
      "name": "setApprovalForAll",
      "outputs": [],
      "stateMutability": "nonpayable",
      "type": "function"
    },
    {
      "inputs": [
        {
          "internalType": "string",
          "name": "__baseURI",
          "type": "string"
        }
      ],
      "name": "setBaseURI",
      "outputs": [],
      "stateMutability": "nonpayable",
      "type": "function"
    },
    {
      "inputs": [
        {
          "internalType": "bytes4",
          "name": "interfaceId",
          "type": "bytes4"
        }
      ],
      "name": "supportsInterface",
      "outputs": [
        {
          "internalType": "bool",
          "name": "",
          "type": "bool"
        }
      ],
      "stateMutability": "view",
      "type": "function"
    },
    {
      "inputs": [],
      "name": "symbol",
      "outputs": [
        {
          "internalType": "string",
          "name": "",
          "type": "string"
        }
      ],
      "stateMutability": "view",
      "type": "function"
    },
    {
      "inputs": [
        {
          "internalType": "uint256",
          "name": "tokenId",
          "type": "uint256"
        }
      ],
      "name": "tokenURI",
      "outputs": [
        {
          "internalType": "string",
          "name": "",
          "type": "string"
        }
      ],
      "stateMutability": "view",
      "type": "function"
    },
    {
      "inputs": [
        {
          "internalType": "address",
          "name": "from",
          "type": "address"
        },
        {
          "internalType": "address",
          "name": "to",
          "type": "address"
        },
        {
          "internalType": "uint256",
          "name": "tokenId",
          "type": "uint256"
        }
      ],
      "name": "transferFrom",
      "outputs": [],
      "stateMutability": "nonpayable",
      "type": "function"
    },
    {
      "inputs": [
        {
          "internalType": "address",
          "name": "_newOwner",
          "type": "address"
        }
      ],
      "name": "transferOwnership",
      "outputs": [],
      "stateMutability": "nonpayable",
      "type": "function"
    }
  ],
  "bytecode": "0x60806040523480156200001157600080fd5b5060405162004ecf38038062004ecf8339810160408190526200003491620001a1565b60408051808201825260088082526713dc99195c93919560c21b6020808401828152855180870190965292855284015281519192916200007791600091620000de565b5080516200008d906001906020840190620000de565b5050600680546001600160a01b03199081163317909155600880546001600160a01b03968716908316179055600980549486169482169490941790935550600a805491909316911617905562000228565b828054620000ec90620001eb565b90600052602060002090601f0160209004810192826200011057600085556200015b565b82601f106200012b57805160ff19168380011785556200015b565b828001600101855582156200015b579182015b828111156200015b5782518255916020019190600101906200013e565b50620001699291506200016d565b5090565b5b808211156200016957600081556001016200016e565b80516001600160a01b03811681146200019c57600080fd5b919050565b600080600060608486031215620001b757600080fd5b620001c28462000184565b9250620001d26020850162000184565b9150620001e26040850162000184565b90509250925092565b600181811c908216806200020057607f821691505b602082108114156200022257634e487b7160e01b600052602260045260246000fd5b50919050565b614c9780620002386000396000f3fe608060405234801561001057600080fd5b50600436106101f05760003560e01c80638da5cb5b1161010f578063c87b56dd116100a2578063e47bac1811610071578063e47bac18146104db578063e985e9c5146104ee578063f2fde38b14610537578063f3fe3bc31461054a57600080fd5b8063c87b56dd14610482578063d09ef24114610495578063d7169863146104b5578063dd77e9ed146104c857600080fd5b8063a85c38ef116100de578063a85c38ef1461040b578063b88d4fde14610453578063bb9b554a14610466578063c00f1fce1461047957600080fd5b80638da5cb5b146103b057806395d89b41146103d05780639ef3b4ad146103d8578063a22cb465146103f857600080fd5b806342842e0e116101875780636352211e116101565780636352211e1461033b57806370a082311461034e578063860d248a14610361578063861584c41461039d57600080fd5b806342842e0e146102e25780634d2f44d1146102f5578063529d0dce1461030857806355f804b31461032857600080fd5b8063162d29a0116101c3578063162d29a01461027f57806316d5d3831461029257806323b872dd146102b85780632453ffa8146102cb57600080fd5b806301ffc9a7146101f557806306fdde031461021d578063081812fc14610232578063095ea7b31461026a575b600080fd5b610208610203366004614063565b610586565b60405190151581526020015b60405180910390f35b61022561066b565b60405161021491906140f6565b610245610240366004614109565b6106fd565b60405173ffffffffffffffffffffffffffffffffffffffff9091168152602001610214565b61027d61027836600461414b565b610731565b005b61027d61028d366004614109565b6108c3565b6102a56102a0366004614109565b610d12565b6040516102149796959493929190614175565b61027d6102c63660046141df565b610e91565b6102d4600e5481565b604051908152602001610214565b61027d6102f03660046141df565b610f32565b61027d610303366004614505565b610f4d565b61031b61031636600461460f565b611111565b6040516102149190614665565b61027d610336366004614678565b61118a565b610245610349366004614109565b611228565b6102d461035c36600461460f565b6112b4565b6102256040518060400160405280600681526020017f303138303032000000000000000000000000000000000000000000000000000081525081565b61031b6103ab36600461460f565b611382565b6006546102459073ffffffffffffffffffffffffffffffffffffffff1681565b6102256113f9565b6103eb6103e6366004614109565b611408565b60405161021491906146ad565b61027d6104063660046147e0565b6116e7565b610443610419366004614109565b600c6020526000908152604090208054600182015460028301546003909301549192909160ff1684565b6040516102149493929190614881565b61027d6104613660046148ac565b6116f2565b61027d610474366004614109565b61179a565b6102d4600d5481565b610225610490366004614109565b611be6565b6104a86104a3366004614109565b611c4d565b6040516102149190614928565b61027d6104c3366004614109565b611ccf565b61027d6104d6366004614961565b612158565b61031b6104e936600461460f565b6125a9565b6102086104fc366004614986565b73ffffffffffffffffffffffffffffffffffffffff918216600090815260056020908152604080832093909416825291909152205460ff1690565b61027d61054536600461460f565b612620565b6102256040518060400160405280600681526020017f303138303031000000000000000000000000000000000000000000000000000081525081565b60007fffffffff0000000000000000000000000000000000000000000000000000000082167f80ac58cd00000000000000000000000000000000000000000000000000000000148061061957507fffffffff0000000000000000000000000000000000000000000000000000000082167f5b5e139f00000000000000000000000000000000000000000000000000000000145b8061066557507f01ffc9a7000000000000000000000000000000000000000000000000000000007fffffffff000000000000000000000000000000000000000000000000000000008316145b92915050565b60606000805461067a906149b9565b80601f01602080910402602001604051908101604052809291908181526020018280546106a6906149b9565b80156106f35780601f106106c8576101008083540402835291602001916106f3565b820191906000526020600020905b8154815290600101906020018083116106d657829003601f168201915b5050505050905090565b6000610708826127b8565b5060009081526004602052604090205473ffffffffffffffffffffffffffffffffffffffff1690565b600061073c82611228565b90508073ffffffffffffffffffffffffffffffffffffffff168373ffffffffffffffffffffffffffffffffffffffff1614156107ff576040517f08c379a000000000000000000000000000000000000000000000000000000000815260206004820152602160248201527f4552433732313a20617070726f76616c20746f2063757272656e74206f776e6560448201527f720000000000000000000000000000000000000000000000000000000000000060648201526084015b60405180910390fd5b3373ffffffffffffffffffffffffffffffffffffffff82161480610828575061082881336104fc565b6108b4576040517f08c379a000000000000000000000000000000000000000000000000000000000815260206004820152603e60248201527f4552433732313a20617070726f76652063616c6c6572206973206e6f7420746f60448201527f6b656e206f776e6572206e6f7220617070726f76656420666f7220616c6c000060648201526084016107f6565b6108be8383612846565b505050565b336108cd82611228565b73ffffffffffffffffffffffffffffffffffffffff161461094a576040517f08c379a000000000000000000000000000000000000000000000000000000000815260206004820152600960248201527f6e6f74206f776e6572000000000000000000000000000000000000000000000060448201526064016107f6565b6000818152600c60209081526040808320815160808101835281548152600182015493810193909352600281015491830191909152600380820154606084019160ff9091169081111561099f5761099f614817565b60038111156109b0576109b0614817565b9052506040808201516000908152600b6020908152828220835161010081018552815473ffffffffffffffffffffffffffffffffffffffff9081168252600183015481169382019390935260028201549092169382019390935260038301805494955091939092916060840191610a26906149b9565b80601f0160208091040260200160405190810160405280929190818152602001828054610a52906149b9565b8015610a9f5780601f10610a7457610100808354040283529160200191610a9f565b820191906000526020600020905b815481529060010190602001808311610a8257829003601f168201915b50505050508152602001600482018054610ab8906149b9565b80601f0160208091040260200160405190810160405280929190818152602001828054610ae4906149b9565b8015610b315780601f10610b0657610100808354040283529160200191610b31565b820191906000526020600020905b815481529060010190602001808311610b1457829003601f168201915b505050505081526020016005820160009054906101000a900473ffffffffffffffffffffffffffffffffffffffff1673ffffffffffffffffffffffffffffffffffffffff1673ffffffffffffffffffffffffffffffffffffffff1681526020016006820154815260200160078201805480602002602001604051908101604052809291908181526020018280548015610be957602002820191906000526020600020905b815481526020019060010190808311610bd5575b505050505081525050905060006003811115610c0757610c07614817565b82606001516003811115610c1d57610c1d614817565b14610c84576040517f08c379a000000000000000000000000000000000000000000000000000000000815260206004820152600e60248201527f6f72646572206e6f74206f70656e00000000000000000000000000000000000060448201526064016107f6565b602081015173ffffffffffffffffffffffffffffffffffffffff163314610d07576040517f08c379a000000000000000000000000000000000000000000000000000000000815260206004820152600c60248201527f6e6f7420656d706c6f796565000000000000000000000000000000000000000060448201526064016107f6565b6108be8360016128e6565b600b60205260009081526040902080546001820154600283015460038401805473ffffffffffffffffffffffffffffffffffffffff94851695938516949092169291610d5d906149b9565b80601f0160208091040260200160405190810160405280929190818152602001828054610d89906149b9565b8015610dd65780601f10610dab57610100808354040283529160200191610dd6565b820191906000526020600020905b815481529060010190602001808311610db957829003601f168201915b505050505090806004018054610deb906149b9565b80601f0160208091040260200160405190810160405280929190818152602001828054610e17906149b9565b8015610e645780601f10610e3957610100808354040283529160200191610e64565b820191906000526020600020905b815481529060010190602001808311610e4757829003601f168201915b505050506005830154600690930154919273ffffffffffffffffffffffffffffffffffffffff1691905087565b610e9b3382612d82565b610f27576040517f08c379a000000000000000000000000000000000000000000000000000000000815260206004820152602e60248201527f4552433732313a2063616c6c6572206973206e6f7420746f6b656e206f776e6560448201527f72206e6f7220617070726f76656400000000000000000000000000000000000060648201526084016107f6565b6108be838383612e42565b6108be838383604051806020016040528060008152506116f2565b600089600001518a602001518b604001518c606001518d608001518e60a00151604051602001610f8296959493929190614a0d565b6040516020818303038152906040528051906020012090508751895114611005576040517f08c379a000000000000000000000000000000000000000000000000000000000815260206004820152601b60248201527f696e636f72726563742061747472696275746573206c656e677468000000000060448201526064016107f6565b4260005b8a518110156110e957818a828151811061102557611025614a9c565b6020026020010151116110ba576040517f08c379a000000000000000000000000000000000000000000000000000000000815260206004820152602760248201527f696e636f727265637420617474726962757465733a646561646c696e6554696d60448201527f657374616d70730000000000000000000000000000000000000000000000000060648201526084016107f6565b8981815181106110cc576110cc614a9c565b6020026020010151915080806110e190614afa565b915050611009565b5060006110f58c6130a9565b90506111028b8b836131f9565b50505050505050505050505050565b73ffffffffffffffffffffffffffffffffffffffff811660009081526010602090815260409182902080548351818402810184019094528084526060939283018282801561117e57602002820191906000526020600020905b81548152602001906001019080831161116a575b50505050509050919050565b60068054604080518082019091529182527f3031383030310000000000000000000000000000000000000000000000000000602083015273ffffffffffffffffffffffffffffffffffffffff163314611210576040517f08c379a00000000000000000000000000000000000000000000000000000000081526004016107f691906140f6565b508051611224906007906020840190613f2a565b5050565b60008181526002602052604081205473ffffffffffffffffffffffffffffffffffffffff1680610665576040517f08c379a000000000000000000000000000000000000000000000000000000000815260206004820152601860248201527f4552433732313a20696e76616c696420746f6b656e204944000000000000000060448201526064016107f6565b600073ffffffffffffffffffffffffffffffffffffffff8216611359576040517f08c379a000000000000000000000000000000000000000000000000000000000815260206004820152602960248201527f4552433732313a2061646472657373207a65726f206973206e6f74206120766160448201527f6c6964206f776e6572000000000000000000000000000000000000000000000060648201526084016107f6565b5073ffffffffffffffffffffffffffffffffffffffff1660009081526003602052604090205490565b73ffffffffffffffffffffffffffffffffffffffff811660009081526011602090815260409182902080548351818402810184019094528084526060939283018282801561117e576020028201919060005260206000209081548152602001906001019080831161116a5750505050509050919050565b60606001805461067a906149b9565b6114a8604051806101000160405280600073ffffffffffffffffffffffffffffffffffffffff168152602001600073ffffffffffffffffffffffffffffffffffffffff168152602001600073ffffffffffffffffffffffffffffffffffffffff1681526020016060815260200160608152602001600073ffffffffffffffffffffffffffffffffffffffff16815260200160008152602001606081525090565b6000828152600b6020908152604091829020825161010081018452815473ffffffffffffffffffffffffffffffffffffffff90811682526001830154811693820193909352600282015490921692820192909252600382018054919291606084019190611514906149b9565b80601f0160208091040260200160405190810160405280929190818152602001828054611540906149b9565b801561158d5780601f106115625761010080835404028352916020019161158d565b820191906000526020600020905b81548152906001019060200180831161157057829003601f168201915b505050505081526020016004820180546115a6906149b9565b80601f01602080910402602001604051908101604052809291908181526020018280546115d2906149b9565b801561161f5780601f106115f45761010080835404028352916020019161161f565b820191906000526020600020905b81548152906001019060200180831161160257829003601f168201915b505050505081526020016005820160009054906101000a900473ffffffffffffffffffffffffffffffffffffffff1673ffffffffffffffffffffffffffffffffffffffff1673ffffffffffffffffffffffffffffffffffffffff16815260200160068201548152602001600782018054806020026020016040519081016040528092919081815260200182805480156116d757602002820191906000526020600020905b8154815260200190600101908083116116c3575b5050505050815250509050919050565b6112243383836136cd565b6116fc3383612d82565b611788576040517f08c379a000000000000000000000000000000000000000000000000000000000815260206004820152602e60248201527f4552433732313a2063616c6c6572206973206e6f7420746f6b656e206f776e6560448201527f72206e6f7220617070726f76656400000000000000000000000000000000000060648201526084016107f6565b611794848484846137fb565b50505050565b336117a482611228565b73ffffffffffffffffffffffffffffffffffffffff1614611821576040517f08c379a000000000000000000000000000000000000000000000000000000000815260206004820152600960248201527f6e6f74206f776e6572000000000000000000000000000000000000000000000060448201526064016107f6565b6000818152600c60209081526040808320815160808101835281548152600182015493810193909352600281015491830191909152600380820154606084019160ff9091169081111561187657611876614817565b600381111561188757611887614817565b9052506040808201516000908152600b6020908152828220835161010081018552815473ffffffffffffffffffffffffffffffffffffffff90811682526001830154811693820193909352600282015490921693820193909352600383018054949550919390929160608401916118fd906149b9565b80601f0160208091040260200160405190810160405280929190818152602001828054611929906149b9565b80156119765780601f1061194b57610100808354040283529160200191611976565b820191906000526020600020905b81548152906001019060200180831161195957829003601f168201915b5050505050815260200160048201805461198f906149b9565b80601f01602080910402602001604051908101604052809291908181526020018280546119bb906149b9565b8015611a085780601f106119dd57610100808354040283529160200191611a08565b820191906000526020600020905b8154815290600101906020018083116119eb57829003601f168201915b505050505081526020016005820160009054906101000a900473ffffffffffffffffffffffffffffffffffffffff1673ffffffffffffffffffffffffffffffffffffffff1673ffffffffffffffffffffffffffffffffffffffff1681526020016006820154815260200160078201805480602002602001604051908101604052809291908181526020018280548015611ac057602002820191906000526020600020905b815481526020019060010190808311611aac575b505050505081525050905060016003811115611ade57611ade614817565b82606001516003811115611af457611af4614817565b14611b5b576040517f08c379a000000000000000000000000000000000000000000000000000000000815260206004820152601360248201527f6f72646572206e6f742063616e63656c6c65640000000000000000000000000060448201526064016107f6565b805173ffffffffffffffffffffffffffffffffffffffff163314611bdb576040517f08c379a000000000000000000000000000000000000000000000000000000000815260206004820152600d60248201527f6e6f74207075626c69736865720000000000000000000000000000000000000060448201526064016107f6565b6108be8360006128e6565b6060611bf1826127b8565b6000611bfb61389e565b90506000815111611c1b5760405180602001604052806000815250611c46565b80611c25846138ad565b604051602001611c36929190614b33565b6040516020818303038152906040525b9392505050565b611c55613fae565b600c60008381526020019081526020016000206040518060800160405290816000820154815260200160018201548152602001600282015481526020016003820160009054906101000a900460ff166003811115611cb557611cb5614817565b6003811115611cc657611cc6614817565b90525092915050565b6000818152600c60209081526040808320815160808101835281548152600182015493810193909352600281015491830191909152600380820154606084019160ff90911690811115611d2457611d24614817565b6003811115611d3557611d35614817565b9052506040808201516000908152600b6020908152828220835161010081018552815473ffffffffffffffffffffffffffffffffffffffff9081168252600183015481169382019390935260028201549092169382019390935260038301805494955091939092916060840191611dab906149b9565b80601f0160208091040260200160405190810160405280929190818152602001828054611dd7906149b9565b8015611e245780601f10611df957610100808354040283529160200191611e24565b820191906000526020600020905b815481529060010190602001808311611e0757829003601f168201915b50505050508152602001600482018054611e3d906149b9565b80601f0160208091040260200160405190810160405280929190818152602001828054611e69906149b9565b8015611eb65780601f10611e8b57610100808354040283529160200191611eb6565b820191906000526020600020905b815481529060010190602001808311611e9957829003601f168201915b505050505081526020016005820160009054906101000a900473ffffffffffffffffffffffffffffffffffffffff1673ffffffffffffffffffffffffffffffffffffffff1673ffffffffffffffffffffffffffffffffffffffff1681526020016006820154815260200160078201805480602002602001604051908101604052809291908181526020018280548015611f6e57602002820191906000526020600020905b815481526020019060010190808311611f5a575b505050505081525050905060006003811115611f8c57611f8c614817565b82606001516003811115611fa257611fa2614817565b14612009576040517f08c379a000000000000000000000000000000000000000000000000000000000815260206004820152600e60248201527f6f72646572206e6f74206f70656e00000000000000000000000000000000000060448201526064016107f6565b805173ffffffffffffffffffffffffffffffffffffffff163314806120475750602081015173ffffffffffffffffffffffffffffffffffffffff1633145b6120ad576040517f08c379a000000000000000000000000000000000000000000000000000000000815260206004820152601960248201527f6e6f74207075626c6973686572206f7220656d706c6f7965650000000000000060448201526064016107f6565b8160200151421161211a576040517f08c379a000000000000000000000000000000000000000000000000000000000815260206004820152600c60248201527f6e6f7420646561646c696e65000000000000000000000000000000000000000060448201526064016107f6565b50506000908152600c6020526040902060030180547fffffffffffffffffffffffffffffffffffffffffffffffffffffffffffffff00166002179055565b6000828152600c60209081526040808320815160808101835281548152600182015493810193909352600281015491830191909152600380820154606084019160ff909116908111156121ad576121ad614817565b60038111156121be576121be614817565b9052506040808201516000908152600b6020908152828220835161010081018552815473ffffffffffffffffffffffffffffffffffffffff9081168252600183015481169382019390935260028201549092169382019390935260038301805494955091939092916060840191612234906149b9565b80601f0160208091040260200160405190810160405280929190818152602001828054612260906149b9565b80156122ad5780601f10612282576101008083540402835291602001916122ad565b820191906000526020600020905b81548152906001019060200180831161229057829003601f168201915b505050505081526020016004820180546122c6906149b9565b80601f01602080910402602001604051908101604052809291908181526020018280546122f2906149b9565b801561233f5780601f106123145761010080835404028352916020019161233f565b820191906000526020600020905b81548152906001019060200180831161232257829003601f168201915b505050505081526020016005820160009054906101000a900473ffffffffffffffffffffffffffffffffffffffff1673ffffffffffffffffffffffffffffffffffffffff1673ffffffffffffffffffffffffffffffffffffffff16815260200160068201548152602001600782018054806020026020016040519081016040528092919081815260200182805480156123f757602002820191906000526020600020905b8154815260200190600101908083116123e3575b50505050508152505090506002600381111561241557612415614817565b8260600151600381111561242b5761242b614817565b14612492576040517f08c379a000000000000000000000000000000000000000000000000000000000815260206004820152601a60248201527f6f72646572206e6f7420696e2057616974496e7465726365737300000000000060448201526064016107f6565b604081015173ffffffffffffffffffffffffffffffffffffffff163314612515576040517f08c379a000000000000000000000000000000000000000000000000000000000815260206004820152600f60248201527f6e6f7420696e746572636573736f72000000000000000000000000000000000060448201526064016107f6565b821561255a576000848152600c6020526040902060030180547fffffffffffffffffffffffffffffffffffffffffffffffffffffffffffffff00166001179055611794565b61256d8160000151826020015186612e42565b5050506000908152600c6020526040902060030180547fffffffffffffffffffffffffffffffffffffffffffffffffffffffffffffff00169055565b73ffffffffffffffffffffffffffffffffffffffff81166000908152600f602090815260409182902080548351818402810184019094528084526060939283018282801561117e576020028201919060005260206000209081548152602001906001019080831161116a5750505050509050919050565b60068054604080518082019091529182527f3031383030310000000000000000000000000000000000000000000000000000602083015273ffffffffffffffffffffffffffffffffffffffff1633146126a6576040517f08c379a00000000000000000000000000000000000000000000000000000000081526004016107f691906140f6565b5060408051808201909152600681527f3031383030320000000000000000000000000000000000000000000000000000602082015273ffffffffffffffffffffffffffffffffffffffff8216612729576040517f08c379a00000000000000000000000000000000000000000000000000000000081526004016107f691906140f6565b5060065460405173ffffffffffffffffffffffffffffffffffffffff8084169216907f8be0079c531659141344cd1fd0a4f28419497f9722a3daafe3b4186f6b6457e090600090a3600680547fffffffffffffffffffffffff00000000000000000000000000000000000000001673ffffffffffffffffffffffffffffffffffffffff92909216919091179055565b60008181526002602052604090205473ffffffffffffffffffffffffffffffffffffffff16612843576040517f08c379a000000000000000000000000000000000000000000000000000000000815260206004820152601860248201527f4552433732313a20696e76616c696420746f6b656e204944000000000000000060448201526064016107f6565b50565b600081815260046020526040902080547fffffffffffffffffffffffff00000000000000000000000000000000000000001673ffffffffffffffffffffffffffffffffffffffff841690811790915581906128a082611228565b73ffffffffffffffffffffffffffffffffffffffff167f8c5be1e5ebec7d5bd14f71427d1e84f3dd0314c0f7b2291e5b200ac8c7c3b92560405160405180910390a45050565b6000828152600c60209081526040808320815160808101835281548152600182015493810193909352600281015491830191909152600380820154606084019160ff9091169081111561293b5761293b614817565b600381111561294c5761294c614817565b9052506040808201516000908152600b6020908152828220835161010081018552815473ffffffffffffffffffffffffffffffffffffffff90811682526001830154811693820193909352600282015490921693820193909352600383018054949550919390929160608401916129c2906149b9565b80601f01602080910402602001604051908101604052809291908181526020018280546129ee906149b9565b8015612a3b5780601f10612a1057610100808354040283529160200191612a3b565b820191906000526020600020905b815481529060010190602001808311612a1e57829003601f168201915b50505050508152602001600482018054612a54906149b9565b80601f0160208091040260200160405190810160405280929190818152602001828054612a80906149b9565b8015612acd5780601f10612aa257610100808354040283529160200191612acd565b820191906000526020600020905b815481529060010190602001808311612ab057829003601f168201915b505050505081526020016005820160009054906101000a900473ffffffffffffffffffffffffffffffffffffffff1673ffffffffffffffffffffffffffffffffffffffff1673ffffffffffffffffffffffffffffffffffffffff1681526020016006820154815260200160078201805480602002602001604051908101604052809291908181526020018280548015612b8557602002820191906000526020600020905b815481526020019060010190808311612b71575b5050509190925250505060a08101519091508315612c6d57602082015183516040517fa9059cbb00000000000000000000000000000000000000000000000000000000815273ffffffffffffffffffffffffffffffffffffffff84169263a9059cbb92612c159260040173ffffffffffffffffffffffffffffffffffffffff929092168252602082015260400190565b602060405180830381600087803b158015612c2f57600080fd5b505af1158015612c43573d6000803e3d6000fd5b505050506040513d601f19601f82011682018060405250810190612c679190614b62565b50612d36565b815183516040517fa9059cbb00000000000000000000000000000000000000000000000000000000815273ffffffffffffffffffffffffffffffffffffffff84169263a9059cbb92612ce29260040173ffffffffffffffffffffffffffffffffffffffff929092168252602082015260400190565b602060405180830381600087803b158015612cfc57600080fd5b505af1158015612d10573d6000803e3d6000fd5b505050506040513d601f19601f82011682018060405250810190612d349190614b62565b505b6000858152600c60205260409020600390810180547fffffffffffffffffffffffffffffffffffffffffffffffffffffffffffffff00169091179055612d7b856139df565b5050505050565b600080612d8e83611228565b90508073ffffffffffffffffffffffffffffffffffffffff168473ffffffffffffffffffffffffffffffffffffffff161480612dfc575073ffffffffffffffffffffffffffffffffffffffff80821660009081526005602090815260408083209388168352929052205460ff165b80612e3a57508373ffffffffffffffffffffffffffffffffffffffff16612e22846106fd565b73ffffffffffffffffffffffffffffffffffffffff16145b949350505050565b8273ffffffffffffffffffffffffffffffffffffffff16612e6282611228565b73ffffffffffffffffffffffffffffffffffffffff1614612f05576040517f08c379a000000000000000000000000000000000000000000000000000000000815260206004820152602560248201527f4552433732313a207472616e736665722066726f6d20696e636f72726563742060448201527f6f776e657200000000000000000000000000000000000000000000000000000060648201526084016107f6565b73ffffffffffffffffffffffffffffffffffffffff8216612fa7576040517f08c379a0000000000000000000000000000000000000000000000000000000008152602060048201526024808201527f4552433732313a207472616e7366657220746f20746865207a65726f2061646460448201527f726573730000000000000000000000000000000000000000000000000000000060648201526084016107f6565b612fb2600082612846565b73ffffffffffffffffffffffffffffffffffffffff83166000908152600360205260408120805460019290612fe8908490614b7f565b909155505073ffffffffffffffffffffffffffffffffffffffff82166000908152600360205260408120805460019290613023908490614b96565b909155505060008181526002602052604080822080547fffffffffffffffffffffffff00000000000000000000000000000000000000001673ffffffffffffffffffffffffffffffffffffffff86811691821790925591518493918716917fddf252ad1be2c89b69c2b068fc378daa952ba7f163c4a11628f55a4df523b3ef91a4505050565b600d8054600091826130ba83614afa565b90915550504260c0830152600d546000908152600b6020908152604091829020845181547fffffffffffffffffffffffff000000000000000000000000000000000000000090811673ffffffffffffffffffffffffffffffffffffffff9283161783558387015160018401805483169184169190911790559386015160028301805490951691161790925560608401518051859392613160926003850192910190613f2a565b506080820151805161317c916004840191602090910190613f2a565b5060a08201516005820180547fffffffffffffffffffffffff00000000000000000000000000000000000000001673ffffffffffffffffffffffffffffffffffffffff90921691909117905560c0820151600682015560e082015180516131ed916007840191602090910190613fe6565b5050600d549392505050565b6000818152600b60209081526040808320815161010081018352815473ffffffffffffffffffffffffffffffffffffffff908116825260018301548116948201949094526002820154909316918301919091526003810180548493849390929091606084019190613269906149b9565b80601f0160208091040260200160405190810160405280929190818152602001828054613295906149b9565b80156132e25780601f106132b7576101008083540402835291602001916132e2565b820191906000526020600020905b8154815290600101906020018083116132c557829003601f168201915b505050505081526020016004820180546132fb906149b9565b80601f0160208091040260200160405190810160405280929190818152602001828054613327906149b9565b80156133745780601f1061334957610100808354040283529160200191613374565b820191906000526020600020905b81548152906001019060200180831161335757829003601f168201915b505050505081526020016005820160009054906101000a900473ffffffffffffffffffffffffffffffffffffffff1673ffffffffffffffffffffffffffffffffffffffff1673ffffffffffffffffffffffffffffffffffffffff168152602001600682015481526020016007820180548060200260200160405190810160405280929190818152602001828054801561342c57602002820191906000526020600020905b815481526020019060010190808311613418575b5050509190925250505060a081015190915060005b87518110156135995787818151811061345c5761345c614a9c565b60200260200101518461346f9190614b96565b600e8054919550600061348183614afa565b919050555060405180608001604052808983815181106134a3576134a3614a9c565b602002602001015181526020018883815181106134c2576134c2614a9c565b60200260200101518152602001878152602001600060038111156134e8576134e8614817565b815250600c6000600e54815260200190815260200160002060008201518160000155602082015181600101556040820151816002015560608201518160030160006101000a81548160ff0219169083600381111561354857613548614817565b021790555050506000868152600b602090815260408220600e805460079092018054600181018255908552929093209091015554613587903390613aac565b8061359181614afa565b915050613441565b506040517f23b872dd0000000000000000000000000000000000000000000000000000000081523360048201523060248201526044810184905273ffffffffffffffffffffffffffffffffffffffff8216906323b872dd90606401602060405180830381600087803b15801561360e57600080fd5b505af1158015613622573d6000803e3d6000fd5b505050506040513d601f19601f820116820180604052508101906136469190614b62565b5050336000908152600f60209081526040808320805460018181018355918552838520018890558483015173ffffffffffffffffffffffffffffffffffffffff90811685526010845282852080548084018255908652848620018990559482015190941683526011825282208054938401815582529020018390555050600e549392505050565b8173ffffffffffffffffffffffffffffffffffffffff168373ffffffffffffffffffffffffffffffffffffffff161415613763576040517f08c379a000000000000000000000000000000000000000000000000000000000815260206004820152601960248201527f4552433732313a20617070726f766520746f2063616c6c65720000000000000060448201526064016107f6565b73ffffffffffffffffffffffffffffffffffffffff83811660008181526005602090815260408083209487168084529482529182902080547fffffffffffffffffffffffffffffffffffffffffffffffffffffffffffffff001686151590811790915591519182527f17307eab39ab6107e8899845ad3d59bd9653f200f220920489ca2b5937696c31910160405180910390a3505050565b613806848484612e42565b61381284848484613ac6565b611794576040517f08c379a000000000000000000000000000000000000000000000000000000000815260206004820152603260248201527f4552433732313a207472616e7366657220746f206e6f6e20455243373231526560448201527f63656976657220696d706c656d656e746572000000000000000000000000000060648201526084016107f6565b60606007805461067a906149b9565b6060816138ed57505060408051808201909152600181527f3000000000000000000000000000000000000000000000000000000000000000602082015290565b8160005b8115613917578061390181614afa565b91506139109050600a83614bdd565b91506138f1565b60008167ffffffffffffffff8111156139325761393261421b565b6040519080825280601f01601f19166020018201604052801561395c576020820181803683370190505b5090505b8415612e3a57613971600183614b7f565b915061397e600a86614bf1565b613989906030614b96565b60f81b81838151811061399e5761399e614a9c565b60200101907effffffffffffffffffffffffffffffffffffffffffffffffffffffffffffff1916908160001a9053506139d8600a86614bdd565b9450613960565b60006139ea82611228565b90506139f7600083612846565b73ffffffffffffffffffffffffffffffffffffffff81166000908152600360205260408120805460019290613a2d908490614b7f565b909155505060008281526002602052604080822080547fffffffffffffffffffffffff00000000000000000000000000000000000000001690555183919073ffffffffffffffffffffffffffffffffffffffff8416907fddf252ad1be2c89b69c2b068fc378daa952ba7f163c4a11628f55a4df523b3ef908390a45050565b611224828260405180602001604052806000815250613cc5565b600073ffffffffffffffffffffffffffffffffffffffff84163b15613cba576040517f150b7a0200000000000000000000000000000000000000000000000000000000815273ffffffffffffffffffffffffffffffffffffffff85169063150b7a0290613b3d903390899088908890600401614c05565b602060405180830381600087803b158015613b5757600080fd5b505af1925050508015613ba5575060408051601f3d9081017fffffffffffffffffffffffffffffffffffffffffffffffffffffffffffffffe0168201909252613ba291810190614c44565b60015b613c6f573d808015613bd3576040519150601f19603f3d011682016040523d82523d6000602084013e613bd8565b606091505b508051613c67576040517f08c379a000000000000000000000000000000000000000000000000000000000815260206004820152603260248201527f4552433732313a207472616e7366657220746f206e6f6e20455243373231526560448201527f63656976657220696d706c656d656e746572000000000000000000000000000060648201526084016107f6565b805181602001fd5b7fffffffff00000000000000000000000000000000000000000000000000000000167f150b7a0200000000000000000000000000000000000000000000000000000000149050612e3a565b506001949350505050565b613ccf8383613d68565b613cdc6000848484613ac6565b6108be576040517f08c379a000000000000000000000000000000000000000000000000000000000815260206004820152603260248201527f4552433732313a207472616e7366657220746f206e6f6e20455243373231526560448201527f63656976657220696d706c656d656e746572000000000000000000000000000060648201526084016107f6565b73ffffffffffffffffffffffffffffffffffffffff8216613de5576040517f08c379a000000000000000000000000000000000000000000000000000000000815260206004820181905260248201527f4552433732313a206d696e7420746f20746865207a65726f206164647265737360448201526064016107f6565b60008181526002602052604090205473ffffffffffffffffffffffffffffffffffffffff1615613e71576040517f08c379a000000000000000000000000000000000000000000000000000000000815260206004820152601c60248201527f4552433732313a20746f6b656e20616c7265616479206d696e7465640000000060448201526064016107f6565b73ffffffffffffffffffffffffffffffffffffffff82166000908152600360205260408120805460019290613ea7908490614b96565b909155505060008181526002602052604080822080547fffffffffffffffffffffffff00000000000000000000000000000000000000001673ffffffffffffffffffffffffffffffffffffffff861690811790915590518392907fddf252ad1be2c89b69c2b068fc378daa952ba7f163c4a11628f55a4df523b3ef908290a45050565b828054613f36906149b9565b90600052602060002090601f016020900481019282613f585760008555613f9e565b82601f10613f7157805160ff1916838001178555613f9e565b82800160010185558215613f9e579182015b82811115613f9e578251825591602001919060010190613f83565b50613faa929150614020565b5090565b604051806080016040528060008152602001600081526020016000815260200160006003811115613fe157613fe1614817565b905290565b828054828255906000526020600020908101928215613f9e5791602002820182811115613f9e578251825591602001919060010190613f83565b5b80821115613faa5760008155600101614021565b7fffffffff000000000000000000000000000000000000000000000000000000008116811461284357600080fd5b60006020828403121561407557600080fd5b8135611c4681614035565b60005b8381101561409b578181015183820152602001614083565b838111156117945750506000910152565b600081518084526140c4816020860160208601614080565b601f017fffffffffffffffffffffffffffffffffffffffffffffffffffffffffffffffe0169290920160200192915050565b602081526000611c4660208301846140ac565b60006020828403121561411b57600080fd5b5035919050565b803573ffffffffffffffffffffffffffffffffffffffff8116811461414657600080fd5b919050565b6000806040838503121561415e57600080fd5b61416783614122565b946020939093013593505050565b600073ffffffffffffffffffffffffffffffffffffffff808a1683528089166020840152808816604084015260e060608401526141b560e08401886140ac565b83810360808501526141c781886140ac565b9590911660a0840152505060c0015295945050505050565b6000806000606084860312156141f457600080fd5b6141fd84614122565b925061420b60208501614122565b9150604084013590509250925092565b7f4e487b7100000000000000000000000000000000000000000000000000000000600052604160045260246000fd5b604051610100810167ffffffffffffffff8111828210171561426e5761426e61421b565b60405290565b604051601f82017fffffffffffffffffffffffffffffffffffffffffffffffffffffffffffffffe016810167ffffffffffffffff811182821017156142bb576142bb61421b565b604052919050565b600067ffffffffffffffff8311156142dd576142dd61421b565b61430e60207fffffffffffffffffffffffffffffffffffffffffffffffffffffffffffffffe0601f86011601614274565b905082815283838301111561432257600080fd5b828260208301376000602084830101529392505050565b600082601f83011261434a57600080fd5b611c46838335602085016142c3565b600082601f83011261436a57600080fd5b8135602067ffffffffffffffff8211156143865761438661421b565b8160051b614395828201614274565b92835284810182019282810190878511156143af57600080fd5b83870192505b848310156143ce578235825291830191908301906143b5565b979650505050505050565b600061010082840312156143ec57600080fd5b6143f461424a565b90506143ff82614122565b815261440d60208301614122565b602082015261441e60408301614122565b6040820152606082013567ffffffffffffffff8082111561443e57600080fd5b61444a85838601614339565b6060840152608084013591508082111561446357600080fd5b61446f85838601614339565b608084015261448060a08501614122565b60a084015260c084013560c084015260e08401359150808211156144a357600080fd5b506144b084828501614359565b60e08301525092915050565b60008083601f8401126144ce57600080fd5b50813567ffffffffffffffff8111156144e657600080fd5b6020830191508360208285010111156144fe57600080fd5b9250929050565b600080600080600080600080600060c08a8c03121561452357600080fd5b893567ffffffffffffffff8082111561453b57600080fd5b6145478d838e016143d9565b9a5060208c013591508082111561455d57600080fd5b6145698d838e01614359565b995060408c013591508082111561457f57600080fd5b61458b8d838e01614359565b985060608c01359150808211156145a157600080fd5b6145ad8d838e016144bc565b909850965060808c01359150808211156145c657600080fd5b6145d28d838e016144bc565b909650945060a08c01359150808211156145eb57600080fd5b506145f88c828d016144bc565b915080935050809150509295985092959850929598565b60006020828403121561462157600080fd5b611c4682614122565b600081518084526020808501945080840160005b8381101561465a5781518752958201959082019060010161463e565b509495945050505050565b602081526000611c46602083018461462a565b60006020828403121561468a57600080fd5b813567ffffffffffffffff8111156146a157600080fd5b612e3a84828501614339565b602081526146d460208201835173ffffffffffffffffffffffffffffffffffffffff169052565b600060208301516146fd604084018273ffffffffffffffffffffffffffffffffffffffff169052565b50604083015173ffffffffffffffffffffffffffffffffffffffff8116606084015250606083015161010080608085015261473c6101208501836140ac565b915060808501517fffffffffffffffffffffffffffffffffffffffffffffffffffffffffffffffe0808685030160a087015261477884836140ac565b935060a087015191506147a360c087018373ffffffffffffffffffffffffffffffffffffffff169052565b60c087015160e087015260e08701519150808685030183870152506147c8838261462a565b9695505050505050565b801515811461284357600080fd5b600080604083850312156147f357600080fd5b6147fc83614122565b9150602083013561480c816147d2565b809150509250929050565b7f4e487b7100000000000000000000000000000000000000000000000000000000600052602160045260246000fd5b6004811061487d577f4e487b7100000000000000000000000000000000000000000000000000000000600052602160045260246000fd5b9052565b8481526020810184905260408101839052608081016148a36060830184614846565b95945050505050565b600080600080608085870312156148c257600080fd5b6148cb85614122565b93506148d960208601614122565b925060408501359150606085013567ffffffffffffffff8111156148fc57600080fd5b8501601f8101871361490d57600080fd5b61491c878235602084016142c3565b91505092959194509250565b6000608082019050825182526020830151602083015260408301516040830152606083015161495a6060840182614846565b5092915050565b6000806040838503121561497457600080fd5b82359150602083013561480c816147d2565b6000806040838503121561499957600080fd5b6149a283614122565b91506149b060208401614122565b90509250929050565b600181811c908216806149cd57607f821691505b60208210811415614a07577f4e487b7100000000000000000000000000000000000000000000000000000000600052602260045260246000fd5b50919050565b60007fffffffffffffffffffffffffffffffffffffffff000000000000000000000000808960601b168352808860601b166014840152808760601b1660288401528551614a6181603c860160208a01614080565b855190840190614a7881603c840160208a01614080565b808201915050818560601b16603c8201526050810192505050979650505050505050565b7f4e487b7100000000000000000000000000000000000000000000000000000000600052603260045260246000fd5b7f4e487b7100000000000000000000000000000000000000000000000000000000600052601160045260246000fd5b60007fffffffffffffffffffffffffffffffffffffffffffffffffffffffffffffffff821415614b2c57614b2c614acb565b5060010190565b60008351614b45818460208801614080565b835190830190614b59818360208801614080565b01949350505050565b600060208284031215614b7457600080fd5b8151611c46816147d2565b600082821015614b9157614b91614acb565b500390565b60008219821115614ba957614ba9614acb565b500190565b7f4e487b7100000000000000000000000000000000000000000000000000000000600052601260045260246000fd5b600082614bec57614bec614bae565b500490565b600082614c0057614c00614bae565b500690565b600073ffffffffffffffffffffffffffffffffffffffff8087168352808616602084015250836040830152608060608301526147c860808301846140ac565b600060208284031215614c5657600080fd5b8151611c468161403556fea264697066735822122073adf5f3de586c1b2120f69fe5898940cbfe2c5097320a3cf5053e4e13372b7f64736f6c63430008090033",
  "linkReferences": {},
  "deployedLinkReferences": {}
}